:020000040800F2
:100000004014002089010008C1020008B102000864
:10001000BD02000895020008190400080000000055
:10002000000000000000000000000000C9020008FD
:10003000AD02000800000000C3020008A101000892
:10004000A3010008A3010008A3010008A301000800
:10005000A3010008A3010008A3010008AF020008E3
:10006000A3010008A3010008A301000899020008E9
:10007000A30100089B0200089D0200089F020008DF
:10008000A1020008A3020008A3010008A3010008C0
:10009000A3010008A3010008A3010008A3010008B0
:1000A000A3010008A3010008A3010008A3010008A0
:1000B000A301000869030008A3010008B7020008B3
:1000C000B5020008BB020008B9020008C50200081A
:1000D000C70200086D030008C9030008CD0300082B
:1000E000A3010008A3010008A3010008000000000C
:1000F0000000000000000000000000000000000000
:1001000000000000A3010008A30100080000000097
:10011000A3010008A3010008000000000000000087
:10012000A5020008A7020008A9020008AB02000807
:1001300000000000000000000000000000000000BF
:10014000000000000000000000000000A301000803
:100150000000000000000000A3010008A301000847
:10016000000000000000000000000000A3010008E3
:10017000DFF810D000F07CF8004800477113000849
:10018000AFF300804014002006488047064800472F
:10019000FEE7FEE7FEE7FEE7FEE7FEE7FEE7FEE737
:1001A000FEE7FEE7CD020008710100082DE9F05FCF
:1001B0000546002092469B468846064681464024D6
:1001C0001BE0284641464746224600F041F8534688
:1001D0005A46C01A914110D311461846224600F0E3
:1001E00028F82D1A67EB01084F462246012000210E
:1001F00000F01FF817EB00094E41201EA4F1010486
:10020000DFDC484631462A464346BDE8F09F40EAD7
:1002100001039B0703D009E008C9121F08C0042A84
:10022000FAD203E011F8013B00F8013B521EF9D26B
:100230007047202A04DB203A00FA02F100207047C0
:100240009140C2F1200320FA03F319439040704714
:10025000202A04DB203A21FA02F00021704721FA1B
:1002600002F3D040C2F12002914008431946704782
:10027000064C074D06E0E06840F0010394E80700F3
:1002800098471034AC42F6D3FFF776FFE029000818
:10029000002A000800BFFEE77047704770477047AC
:1002A0007047704770477047704770477047704796
:1002B00000BFFEE7704770477047704700BFFEE71A
:1002C0007047704770477047704700002248C06908
:1002D00020F0805000F180501F49C8611F4800780D
:1002E00040F004001D49503981F850001A48C06997
:1002F00020F080501849C8610846006820F00100CD
:10030000401C086000BF14480068C0F3400000288B
:10031000F9D01148406820F003000F49486000BF41
:100320000D484068C0F381000028F9D10A480068F0
:100330000B490840084908600020486041F61070E9
:10034000C8624FF4801008634FF41F008860C80330
:1003500004490860704700000010024050700040DF
:10036000FFFFF2FE08ED00E07047000010B510211D
:10037000114801F0E2FBE8B10F480068C4B20E4832
:10038000001D0068C4B2002401200C4981F8020459
:100390000B4800F0E0FBC0F50070084908800846F3
:1003A0000288811C0748FFF732FF04480188801C3F
:1003B00001F094FB10BD0000003801401000002047
:1003C000080002401C0C00207047000010B51021EE
:1003D0000E4801F0B2FBB8B10C480068C4B20B483B
:1003E000001D0068C4B200240120094981F80204FC
:1003F000084800F0B0FBC0F50070054908800846C9
:100400000188801C01F06AFB10BD0000004800401C
:10041000180800205800024000BFFEE70FB4054B4B
:1004200010B503A9044A029800F017F810BC5DF853
:1004300014FB0000451000080C00002002E008C872
:10044000121F08C1002AFAD170477047002001E04E
:1004500001C1121F002AFBD170472DE9F84F9946C0
:10046000924688460546002706E025280AD05146D0
:100470004A4690476D1C7F1C28780028F5D13846E5
:10048000BDE8F88F002315F8011F18462E2915D155
:1004900015F8011F04232A290DD06FF02F022978A7
:1004A000A1F13004092C09D800EB800002EB4000D8
:1004B00008446D1CF3E758F8040B6D1C2A78002AD9
:1004C000DDD0632A07D0732A0FD0104651464A4622
:1004D00090477F1C2AE018F8042B8DF8002000219B
:1004E0008DF801106E46012103E058F8046B4FF0BF
:1004F000FF315A074FF0000401D409E0641C844224
:100500000BDA8C42FADB325D002AF7D105E0641C7D
:100510008C42FCDB305D0028F9D1274404E016F85A
:10052000010B51464A469047641EF8D26D1CA3E762
:100530000348806820F00100401C01498860704732
:10054000003002400149086170470000003002405D
:100550000349896860F3C401014A91607047000053
:1005600000300240014948617047000000300240FD
:100570000349896860F34611014A916070470000A1
:10058000003002400349896860F3C711014A916055
:1005900070470000003002400349496860F30711CA
:1005A000014A516070470000001002400349496849
:1005B00060F30A21014A51607047000000100240B8
:1005C0000349496860F3CD21014A5160704700003A
:1005D00000100240012807D10749496D21F0300180
:1005E0003031054A516505E00349496D21F030017C
:1005F000014A51657047000000100240052827D2CB
:10060000DFE800F0030A11181F00134A126861F3B3
:100610000002114B1A601CE00F4A126861F310428D
:100620000D4B1A6015E00C4A126861F318620A4B10
:100630001A600EE0084A126A61F30002064B1A6261
:1006400007E0054A526A61F30002034B5A6200E078
:1006500000BF00BF70470000001002402DE9F04FBE
:1006600085B004460025AA46AB460026A9460020D0
:10067000049003900290019000F006FA0090009818
:1006800020B1012812D0022875D112E05648406DE1
:10069000C0F3402038B15448006BC0F3406010B143
:1006A0005248206001E05248206067E050482060D6
:1006B00064E04D484068C0F3004B4B48C06AC00F2F
:1006C00030BB49484068C0F3834547484068C0F3A1
:1006D000417ABAF1000F01D10F2D04D14FEA0A106F
:1006E000401C054400E0AD1CBBF1000F03D14148A4
:1006F000684320603DE03C484068C0F3404018B18A
:100700003C486843206034E039486843206030E06A
:100710003548C06AC0F3031003903348C06AC0F381
:10072000082002903048C06A00F007000190BBF139
:10073000000F02D12F48049009E02B484068C0F315
:10074000404010B12B48049001E029480490012159
:10075000019801FA00F0039900FB01FC029904984A
:10076000A0FB01700146624600233846FFF71EFDDC
:10077000206003E0FFE71E48206000BF00BF1A486A
:100780004068C0F303161C4810F80690206820FA51
:1007900009F0606014484068C0F30226174810F85A
:1007A0000690606820FA09F0E0600F484068C0F3E6
:1007B000C226134810F80690606820FA09F0A0607D
:1007C00009484068C0F3007607484068C0F38130AC
:1007D00040EA86060B4810F80690A068B0FBF9F0D6
:1007E000206105B0BDE8F08F00100240006CDC0213
:1007F00000127A0000093D00A8290008B829000865
:10080000C0290008C82900080349096A60F3CF31EC
:10081000014A116270470000001002400349096A52
:1008200060F30921014A1162704700000010024084
:1008300010B501460020094B03EB1142126801F08C
:100840001F040123A3401A4001F01F040123A34009
:100850009A4200D000E0012010BD000000100240CC
:100860000349096B60F35961014A11637047000045
:100870000010024000B503460120FFF7F1FF0348D6
:10088000406D63F349200149486500BD00100240F6
:1008900010B501290DD10E4B03EB1042126800F088
:1008A0001F040123A3401A43094C04EB10431A60B0
:1008B0000CE0074B03EB1042126800F01F04012309
:1008C000A3409A43024C04EB10431A6010BD000091
:1008D0000010024030B502460020002372B9354CAA
:1008E000646824F48034334D6C6033482C46246BA8
:1008F00024F0007404F100742C6319E02D4C64683A
:1009000024F4803404F580342A4D6C60012A06D129
:100910002A482C46646824F400346C6008E02648B9
:10092000244C646824F4003404F50034214D6C60D8
:10093000234CA04204D9234CA04201D2002326E03C
:10094000214CA04204D9214CA04201D201231EE037
:100950001F4CA04204D91F4CA04201D2022316E032
:100960001C4CA04204D91C4CA04201D203230EE02F
:100970001A4CA04204D91A4CA04201D2042306E02A
:10098000174CA04203D9174CA04200D20523094CB2
:10099000646861F39544074D6C600D09054C64680B
:1009A00065F35E74034D6C602C46E46A63F31A646D
:1009B000EC6230BD0010024000093D0000127A00D8
:1009C00060823B00404B4C0080584F00105E5F003F
:1009D00094357700101B7F0020BCBE00286BEE0012
:1009E00030D73D01D8E9DC011648006820F001004D
:1009F000401C1449086000BF12480068C0F3400062
:100A00000028F9D00F48406820F003000D494860E5
:100A100000BF0C484068C0F381000028F9D10948A4
:100A2000006809490840074908600020486041F60D
:100A30001070C8624FF4801008634FF41F00886084
:100A40007047000000100240FFFFF2FE0D494968A8
:100A500060F301010B4A516000BF00BF00BF00BF3F
:100A600000BF00BF00BF00BF00BF00BF00BF00BF8E
:100A700000BF00BF00BF00BF00BF00BF00BF00BF7E
:100A8000704700000010024002484068C0F3810037
:100A900070470000001002400649496860F3975112
:100AA000044A516082080349496862F3DB61014AE4
:100AB000516070470010024010B50446012C01D16E
:100AC000FFF7D8FE0348406D64F3082001494865EC
:100AD00010BD000000100240002131E032280ADD84
:100AE000194A126832235A434FF0E0235A61A0F1A9
:100AF000320290B206E0144A126842434FF0E023FB
:100B00005A61002000224FF0E0239A611A461269D0
:100B100042F001021A6100BF4FF0E022116901F0BA
:100B200001021AB101F48032002AF5D04FF0E02220
:100B3000126922F001024FF0E0231A6100229A614B
:100B40000028CBD17047000004000020026861F348
:100B50000002026070470146486880B27047002179
:100B60000160416001814181017341738173C173EF
:100B70000174417470470000B0F1805F04D920F027
:100B80007041034A116001E002494860704700006B
:100B90000404024000000240D0F8A430C3F3006314
:100BA0003BB9D0F8A43023F0807303F18073C0F810
:100BB000A430012906D1D0F8A03062F30703C0F8B1
:100BC000A03034E0022906D1D0F8A03062F30F2320
:100BD000C0F8A0302BE0032906D1D0F8A03062F392
:100BE0001743C0F8A03022E0042906D1D0F8A03085
:100BF00062F31F63C0F8A03019E0052906D1D0F8D0
:100C0000A43062F30703C0F8A43010E0062906D12F
:100C1000D0F8A43062F30F23C0F8A43007E007290E
:100C200005D1D0F8A43062F31743C0F8A430704760
:100C300002684BF6EF731A40026002680B891A4390
:100C400002604B7C026863F30D320260CB7B02686A
:100C500063F38B2202608B7B026863F309220260DC
:100C60004B7B026863F3C71202600B7B026863F37D
:100C7000861202600B7C026863F3451202604A89A7
:100C800042600A6882604A68C26070470021026858
:100C900022F0010202600022026042608260C260B3
:100CA000014640F2FF420A40B2F5816F0DD2CAB24E
:100CB000083A1423B2FBF3F293000F229A400D4B33
:100CC0005B681A430B4B5A6012E040F2FF420A4045
:100CD000B2F5916F0CD2CAB2083A1423B2FBF3F208
:100CE00093000F229A40044B1B681A43024B1A6070
:100CF000704700000000024004040240F8B50746B7
:100D00000C4615461E4600200090384600F08EF82E
:100D1000009960F317410091204600F087F8009990
:100D200060F30C210091284600F080F8009960F3F0
:100D300005010091009866F34F30009000F020F913
:100D400000F04EF8012801D00020F8BD00980849B5
:100D5000086000F063F80648001D0068C0F340100A
:100D600008B900F0F1F800F013F90120EDE70000F8
:100D70000428004010B504460B4600F001F900F0CD
:100D80002FF8012801D0002010BD0848006864F346
:100D90001640064908600846006863F30E000860C4
:100DA00000F03CF800F0F4F80120EDE710280040D6
:100DB00000B5034600F0E4F800F012F8012801D075
:100DC000002000BD0548006863F3861003490860F1
:100DD00000F024F800F0DCF80120F2E708280040D9
:100DE00000B54FF4D8020C480068C0F3801080B9F9
:100DF0004FF0FF300849086005E01AB900F0C8F864
:100E0000002000BD521E04480068C0F38010002876
:100E1000F3D00120F5E700000C2800406FF08000BF
:100E200001490860704700000C28004010B50146D9
:100E3000002200230A2091FBF0F0C2B20A2091FBAD
:100E4000F0F400FB1410C3B2100743EA106010BDA9
:100E500000B500F095F800201B490860FFF7C0FFBF
:100E6000012801D0002000BD002017490839086082
:100E700042F20110091D08600020091D0860134896
:100E80001149083108604FF6FF70091D0860002005
:100E9000091D0860091D0860091D08600A49243100
:100EA0000860094934310860091D0860091D08609F
:100EB000091D08600449091D086000F045F800F0AC
:100EC00067F80120CFE7000008280040FF007F00FE
:100ED000F8B507460C4615461E46002000903846D9
:100EE000FFF7A4FF009960F3154100912046FFF73A
:100EF0009DFF009960F30E2100912846FFF796FFB1
:100F0000009960F306010091009866F396500090F6
:100F100000F036F8FFF764FF012801D00020F8BD8B
:100F2000009808490860FFF779FF06480830006814
:100F3000C0F3401008B900F007F800F029F80120CC
:100F4000EDE70000002800404FF4D8010B4800688E
:100F5000C0F3C0106FF0A00242EAC010074A106050
:100F600003E009B900207047491E04480068C0F337
:100F700040100028F5D00120F5E700000C280040C3
:100F8000CA200249086053200860704724280040A6
:100F9000FF20014908607047242800400021417269
:100FA000416001210172017070470000014600207C
:100FB0004868234A12688243214B1A601A1D12683E
:100FC00082431B1D1A604A7A0AB30A782AB91A1F8B
:100FD000126802431B1F1A6006E0194A121D1268AC
:100FE0000243174B1B1D1A60154A083212688243D0
:100FF000134B08331A601A1D126882431B1D1A60B6
:101000000A7A2AB91A1F126802431B1F1A6016E0D7
:101010000A7A012A07D10A4A0C3212680243084BA5
:101020000C331A600BE0064A083212680243044B84
:1010300008331A601A1D126802431B1D1A6070479C
:101040000004014070B504460D4600BF80210548EC
:1010500000F073FD0028F9D0A1B2024800F05AFD5B
:10106000204670BD00380140416170474FF6FF7166
:101070000160002181710171042141710121C1715F
:101080007047000010B500228B071C0F0F2303FAD6
:1010900004F28B1033B1012B13D0022B20D0032B81
:1010A0003CD12CE01F4B9B6893431E4CA36023460E
:1010B0009B688C07240F00FA04F42343194CA360A7
:1010C0002DE0184BDB689343164CE3602346DB6846
:1010D0008C07240F00FA04F42343124CE3601EE053
:1010E000104B1B6993430F4C236123461B698C07EC
:1010F000240F00FA04F423430A4C23610FE0094B48
:101100005B699343074C636123465B698C07240F3B
:1011100000FA04F42343034C636100E000BF00BF06
:1011200010BD000000000140F0B50A461588ABB2C2
:101130009579032D01D100241AE0957965B9557987
:1011400005F00F045579182D01D1036110E0557990
:10115000282D0DD143610BE0957905F0080516792E
:1011600006F004063543D67906F0030645EA060480
:10117000DDB2A5B1002110E001258D401D405DB11B
:1011800005688F000F26BE40B543056005688E00D8
:1011900004FA06F635430560491C0829ECD3FF2BF9
:1011A00015DD1B12002110E001258D401D405DB1B1
:1011B00045688F000F26BE40B543456045688E00E8
:1011C00004FA06F635434560491C0829ECD3F0BD06
:1011D000F0B50C46104F07EB1062C0F30741C0F3A7
:1011E0000725C6B2C5F12007A7EB010C4FF0FF376A
:1011F00007FA0CF3C5F120077F1AFB40CB408B4068
:1012000017689F4317602CB106FA01FC176847EA7C
:101210000C071760F0BD000000000140026861F398
:101220008A220260704709B9012300E000230268A6
:1012300063F3C71202607047426861F3CB224260D9
:101240007047026861F3000202607047026861F350
:1012500086120260704700002DE9F04385B0044615
:10126000894615460027B8460026206820F0010070
:1012700020606846FFF7F2F93448844202D03448CF
:10128000844200D1039F3348B7FBF0F01FFA80F887
:10129000606868F3070060602F4885421FD86800C7
:1012A000B7FBF0F086B2042E00DA0426E06966F39C
:1012B0000B00E061E06920F40040E06108F101000A
:1012C0003F2805DD206A20F03F003F30206239E0F2
:1012D00008F10100216A60F30501216232E0B9F1F1
:1012E000000F09D105EB4500B7FBF0F086B2E069CD
:1012F00020F48040E0610CE005EBC50000EB051038
:10130000B7FBF0F086B2E06920F4804000F5804041
:10131000E06106B90126E06966F30B00E061E0696F
:1013200020F4004000F50040E0614FF4967008FBA7
:1013300000F04FF47A7190FBF1F0401C216A60F3E9
:101340000501216205B0BDE8F083000000540040B3
:101350000058004040420F00A0860100836861F3FE
:10136000CF338360836862F30903836070470000B2
:1013700001F03CF901F012F800F0B2FC00F0A0FF1F
:1013800000F0B6FC4FF40073644A6549654800F00C
:1013900067FE01216348FFF7D9FB00F0D1FC4FF451
:1013A0000073614A61495F48283000F059FE01210D
:1013B0005C482830FFF7CAFB00F0EAFC00231A461D
:1013C0005A4958483C3000F04BFE012155483C300A
:1013D000FFF7BCFB00F004FD4FF40073544A55497D
:1013E0005048503000F03CFE01214E485030FFF78D
:1013F000ADFB00F01DFD00231A464E4949486430FC
:1014000000F02EFE012147486430FFF79FFB00F0FB
:1014100037FD00231A4648494248783000F020FE44
:10142000012140487830FFF791FB00F051FD002387
:101430001A464149414800F013FE01213F48FFF799
:1014400085FB00F06DFD00231A463D493B481430F2
:1014500000F006FE012139481430FFF777FB00F059
:1014600087FD00231A4636493448283000F0F8FD3D
:10147000012132482830FFF769FB00F0A1FD00236D
:101480001A4630492D483C3000F0EAFD01212B4836
:101490003C30FFF75BFB00F0BBFD00231A462949F7
:1014A0002648503000F0DCFD012124485030FFF781
:1014B0004DFB01F057F901F0B1F901F00DFA00F020
:1014C000C7FF01F02BF800F061FE00F0ABFE00F06A
:1014D000CBFD00F0EBFD01F0CFF801F05DFA00F07C
:1014E000E9FB00F00DFEC820FFF7F6FA15E00B4807
:1014F000801E90F8020401280FD113A0FEF78EFF82
:10150000164917A0FEF78AFF00200449891E0880AB
:1015100081F8020413A0FEF781FFE8E71200002023
:101520000438014008000240160400200444004032
:101530001A0800200C300140044800400804024012
:101540000C38004010540040E68EA5E58F97E79ACE
:1015500084E695B0E68DAE5C720A00001C0C00209B
:10156000257300000D0A00002DE9F0470B461446D4
:101570004FF0000C00BF2C4A1268C2F302211D4636
:1015800026460A46C2F10709B9F1040F02D94FF005
:10159000040901E0C2F10709C84602F10409B9F1E2
:1015A000070F02D24FF0000901E0A2F103094F46F4
:1015B0004FF0010909FA08F9A9F1010909EA050939
:1015C00009FA07F94FF0010A0AFA07FAAAF1010A23
:1015D0000AEA060A49EA0A09CC4601466246002997
:1015E00004DB15072E0E114D6E5407E015072F0E64
:1015F0000D4D0C3501F00F06361FAF5500BF0146EB
:1016000000290DDB00BF00BF01F01F050122AA4029
:101610004D09AD0005F1E025C5F8002100BF00BF70
:1016200000BFBDE8F08700000CED00E000E400E042
:1016300000BF00F00702064B19684FF6FF03194080
:10164000044B0B4343EA0221014B196000BF704772
:101650000CED00E00000FA050349096860F3082179
:10166000014A1160704700000070004000210170C5
:1016700041708170C1700171417181710121C1712D
:101680007047026861F3861202607047426861F336
:10169000000242607047426861F341024260704755
:1016A000C26922F40062C2610A7862B9026822F457
:1016B00000420260026822F480420260026822F462
:1016C0008062026036E00A78012A0ED1026822F4B4
:1016D00000420260026822F480420260026822F442
:1016E000806202F58062026024E00A78022A0ED14C
:1016F000026822F4004202F500420260026822F40D
:1017000080420260026822F48062026012E00A787D
:10171000032A0FD1026822F4004202F5004202605F
:10172000026822F4804202F580420260026822F4DC
:1017300080620260CB79026863F3492202604A78D2
:10174000012A09D1CA79012A06D1026822F48072DD
:1017500002F58072026003E0026822F48072026087
:101760004B78026863F3820202608A78072A0BDDF5
:10177000426822F4807202F5807242608A780368BF
:1017800062F3C503036008E0426822F4807242609D
:101790008B78026863F3C5020260CB78026863F35A
:1017A000C71202600B79026863F3CB2202604B79A7
:1017B000026863F3410202608B79026863F30002FE
:1017C000026070472DE9FF5F002400250026A14636
:1017D000A246A3460020039002900190FFF754F91F
:1017E0000090009820B1012814D0022874D115E08F
:1017F0004348406DC0F3402040B14148006BC0F306
:10180000406018B13F484049086002E03F483E4907
:10181000086065E03D483C49086061E03848406840
:10182000C0F300463648C06AC00F20BB3448406849
:10183000C0F3834432484068C0F341750DB90F2CA2
:1018400003D12801401C044400E0A41C26B9304800
:1018500060432D4908603DE029484068C0F340409E
:1018600020B12B4860432849086033E02748604393
:10187000254908602EE02248C06AC0F30310039097
:101880001F48C06AC0F3082002901D48C06A00F0DB
:101890000700019016B9DFF878B009E018484068F1
:1018A000C0F3404010B1DFF868B001E0DFF85CB091
:1018B0000121019801FA00F0039900FB01FC029854
:1018C000ABFB00700146624600233846FEF76EFC13
:1018D0000D49086004E0FFE70C480B49086000BFB1
:1018E00000BF07484068C0F303190A4810F809A070
:1018F0000548006820FA0AF003490860BDE8FF9F28
:1019000000100240006CDC020800002000127A0087
:1019100000093D00D0290008C1628262436923F0BA
:1019200001035B1C43617047026861F30922026096
:101930007047026861F3061202607047026861F343
:1019400000020260704730B5846861F3020484606D
:10195000046A62F3410404625510046A65F3C30427
:101960000462846924F00304641C8461046A63F3E0
:10197000451404625D10046A65F3C7140462846947
:1019800024F4407404F58074846130BD30B50023C4
:101990000B7833B1022B27D0042B48D0062B7DD1F6
:1019A00069E0046A24F0010404624D78046A65F376
:1019B000410404624C786508046A65F3C304046258
:1019C0008D78846965F301048461CD78846965F359
:1019D00007148461846962F383048461046A24F0D7
:1019E0000104641C046267E0046A24F010040462C9
:1019F0004D78046A65F3451404624C786508046AFE
:101A000065F3C71404628D78846965F309248461E1
:101A1000CD78846965F30F348461846962F38B2423
:101A20008461046A24F010041034046244E0046AFF
:101A300024F4807404624D78046A65F349240462D6
:101A40004C786508046A65F3CB2404628D78C46918
:101A500065F30104C461CD78C46965F30714C461FA
:101A6000C46962F38304C461046A24F4807404F5D5
:101A70008074046220E0046A24F4805404624D7887
:101A8000046A65F34D3404628D78C46965F30924F2
:101A9000C461CD78C46965F30F3400E00BE0C46124
:101AA000C46962F38B24C461046A24F4805404F58D
:101AB0008054046200E000BF00BF30BD026861F3E3
:101AC000C71202607047426861F3061242607047B5
:101AD000826861F3C71282607047000070B50446E7
:101AE0000D460220FFF748F800210848FFF72EF8BE
:101AF0000021074800F012F804480838C560446126
:101B000001210248FFF722F870BD000008000240E2
:101B100000380140C1F3080242607047426961F336
:101B2000861242617047426961F3C7124261704791
:101B3000C26861F34D32C2607047024610680840C7
:101B400008B1012070470020FCE741B9426922F446
:101B500080724261426922F40072426127E00129E9
:101B60000AD1426922F4807202F5807242614269B0
:101B700022F4007242611AE002290AD1426922F479
:101B800080724261426922F4007202F50072426181
:101B90000DE003290BD1426922F4807202F58072B4
:101BA0004261426922F4007202F50072426170479C
:101BB0002DE9F04385B004460F46904699466846A5
:101BC000FEF74CFD1448844201D1029E00E0039EC2
:101BD00006EB86004000B0FBF7F50A20B5FBF0F1FC
:101BE00000FB1150052803D20A20B5FBF0F503E0F5
:101BF0000A20B5FBF0F0451CA06865F30F00A0605B
:101C0000E06868F30C30E060206969F30D30206112
:101C100005B0BDE8F08300000038014030B5012A6E
:101C20000BD100EB11431B6801F01F050124AC40F0
:101C3000234300EB114423600AE000EB11431B68CF
:101C400001F01F050124AC40A34300EB11442360C5
:101C500030BD41B9C26822F40072C260C26822F489
:101C60008062C2601AE001290AD1C26822F40072BF
:101C7000C260C26822F4806202F58062C2600DE038
:101C800002290BD1C26822F4007202F50072C26010
:101C9000C26822F4806202F58062C2607047C26846
:101CA00061F38202C2607047C26861F3C302C2601E
:101CB0007047000010B54FF0FF30FEF743FC0020E6
:101CC000FEF746FC0548FEF74DFC0020FEF750FCF1
:101CD0000020FEF757FCFEF72BFC10BDB71DC1041A
:101CE00010B501210148FFF773FA10BD020310304F
:101CF00000B585B01148FEF7C9FF6846FEF72FFF13
:101D00000020ADF808008DF80F0001208DF80D00BF
:101D100000208DF80E008DF80C008DF811008DF864
:101D2000100069460548FEF783FF19220121034888
:101D30000838FEF731FF05B000BD00000800024082
:101D400000B585B01148FEF7A1FF6846FEF707FF12
:101D50000020ADF808008DF80F0001208DF80D006F
:101D600000208DF80E008DF80C008DF811008DF814
:101D7000100069460548FEF75BFF1B22032103485C
:101D80003038FEF709FF05B000BD0000300002400A
:101D900000B585B01148FEF779FF6846FEF7DFFE13
:101DA0001020ADF8080000208DF80F0001208DF8FC
:101DB0000D0000208DF80E008DF80C008DF811003C
:101DC0008DF8100069460548FEF732FF1C220421F9
:101DD00002484438FEF7E0FE05B000BD4400024072
:101DE00000B585B01148FEF751FF6846FEF7B7FE13
:101DF0000020ADF808008DF80F0001208DF80D00CF
:101E000000208DF80E008DF80C008DF811008DF873
:101E1000100069460548FEF70BFF0922052103481B
:101E20005838FEF7B9FE05B000BD0000580002406A
:101E300000B585B01148FEF729FF6846FEF78FFE12
:101E40001020ADF8080000208DF80F0001208DF85B
:101E50000D0000208DF80E008DF80C008DF811009B
:101E60008DF8100069460548FEF7E2FE0A220621B9
:101E700002486C38FEF790FE05B000BD6C000240D1
:101E800000B585B01148FEF701FF6846FEF767FE12
:101E90000020ADF808008DF80F0001208DF80D002E
:101EA00000208DF80E008DF80C008DF811008DF8D3
:101EB000100069460548FEF7BBFE1D2207210348B6
:101EC0008038FEF769FE05B000BD000080000240CA
:101ED00000B585B01148FEF7D9FE6846FEF73FFE13
:101EE0001020ADF8080000208DF80F0001208DF8BB
:101EF0000D0000208DF80E008DF80C008DF81100FB
:101F00008DF8100069460548FEF792FE1E22012159
:101F100002480838FEF740FE05B000BD0804024044
:101F200000B585B01148FEF7B1FE6846FEF717FE12
:101F30000020ADF808008DF80F0001208DF80D008D
:101F400000208DF80E008DF80C008DF811008DF832
:101F5000100069460548FEF76BFE0B22022103487C
:101F60001C38FEF719FE05B000BD00001C0402403D
:101F700000B585B01148FEF789FE6846FEF7EFFD13
:101F80001020ADF8080000208DF80F0001208DF81A
:101F90000D0000208DF80E008DF80C008DF811005A
:101FA0008DF8100069460548FEF742FE0C22032119
:101FB00002483038FEF7F0FD05B000BD30040240A5
:101FC00000B585B01148FEF761FE6846FEF7C7FD13
:101FD0000020ADF808008DF80F0001208DF80D00ED
:101FE00000208DF80E008DF80C008DF811008DF892
:101FF000100069460548FEF71BFE2922042103480C
:102000004438FEF7C9FD05B000BD0000440402409D
:1020100000B585B01148FEF739FE6846FEF79FFD12
:102020001020ADF8080000208DF80F0001208DF879
:102030000D0000208DF80E008DF80C008DF81100B9
:102040008DF8100069460548FEF7F2FD2A220521A9
:1020500002485838FEF7A0FD05B000BD5804024004
:1020600043608160C260704710B50120FFF7F4FA49
:102070000220FEF7D3FB0120FEF7C6FBFEF7E8FEC9
:10208000FEF762FFFF217F20FEF774FE0020FEF7BF
:102090008FFE00231A4619461846FEF719FF012342
:1020A0001A4619460020FEF729FE10BD00B585B07E
:1020B00003A8FEF7DBFF00208DF81200022003903A
:1020C00004208DF8110003A90C48FFF72DF8012119
:1020D0000020FEF7D7FF6846FEF760FF01208DF86D
:1020E000090000208DF800000220019000208DF8EA
:1020F00008006846FEF75AFF05B000BD0008014021
:102100001CB56846FEF7B2FF00208DF806001020CF
:10211000009004208DF8050069461A48FFF704F87E
:1021200041F20F011848FEF79FFF4FF40141154897
:10213000FEF79AFF02208DF8070000208DF80400BA
:1021400010208DF8060041F20F00009004208DF859
:10215000050069460C48FEF7E7FF02208DF80700EE
:1021600000208DF8040010208DF806004FF4014087
:10217000009004208DF8050069460248FEF7D4FF60
:102180001CBD000000080140000C01401CB5684661
:10219000FEF76CFF04208DF804008DF80500082080
:1021A0008DF8060002208DF8070040200090694657
:1021B0001948FEF7B9FF04208DF804008DF80500DA
:1021C00008208DF8060002208DF80700802000907E
:1021D00069461148FEF7A8FF104A00211048FFF792
:1021E0003BF8002211460E48FFF7B8F801210C48D1
:1021F000FFF714F801210A48FFF715F800210848F5
:10220000FFF724F801210648FFF716F801210448DA
:10221000FFF717F81CBD0000000C0140A08601006C
:10222000005400401CB56846FEF720FF04208DF8DE
:1022300004008DF8050008208DF8060002208DF8B6
:1022400007004020009069461948FEF76DFF042002
:102250008DF804008DF8050008208DF80600022096
:102260008DF807008020009069461148FEF75CFF5A
:1022700001211048FEF7ACFF0F4A00210F48FEF77E
:10228000EBFF002211460D48FFF768F801210B48CB
:10229000FEF7C4FF01210948FEF7C5FF00210748EA
:1022A000FEF7D4FF01210548FEF7CBFF1CBD00005F
:1022B000001C014003040828A086010000580040CB
:1022C00010B50320FFF7B4F9002211460720FFF7ED
:1022D0004BF9002211460B20FFF746F90022114668
:1022E0000D20FFF741F9002211460E20FFF73CF9BF
:1022F000002211460F20FFF737F900221146102067
:10230000FFF732F9002211461120FFF72DF90022C4
:1023100011461D20FFF728F9002211461F20FFF764
:1023200023F9002211462020FFF71EF90022114652
:102330002120FFF719F9002211462220FFF714F996
:10234000002211462320FFF70FF900221146242016
:10235000FFF70AF9002211462520FFF705F90022B0
:1023600011462620FFF700F9002211462720FFF72B
:10237000FBF8002211463820FFF7F6F8002211463C
:102380003920FFF7F1F8002211463A20FFF7ECF868
:10239000002211463B20FFF7E7F810BD10B50121E0
:1023A0004FF4A010FEF774FA01212648FEF770FAE8
:1023B00001212448401DFEF76BFA012121480B3012
:1023C000FEF766FA01214FF4C010FEF761FA012111
:1023D0001D48FEF75DFA01211B48401CFEF758FA24
:1023E00001211948401DFEF753FA012116480A3011
:1023F000FEF74EFA012114480C30FEF749FA01218C
:102400001248FEF745FA012110480D30FEF740FA58
:1024100001210E481030FEF73BFA01210B48113024
:10242000FEF736FA012109481430FEF731FA01218E
:1024300006481530FEF72CFA01214FF01C10FEF76C
:1024400027FA10BD010014000200180001001C0052
:102450001FB502A8FEF70AFE6846FFF707F902203B
:102460008DF80F0000208DF80C0008208DF80E006C
:102470002020029004208DF80D0002A92548FEF7C7
:1024800053FE02208DF80F0000208DF80C008DF80F
:102490000E004020029004208DF80D0002A91D4876
:1024A000FEF742FE02208DF80F0000208DF80C0090
:1024B00008208DF80E008020029004208DF80D0079
:1024C00002A91448FEF730FE00208DF8000001201C
:1024D0008DF8010000208DF804008DF803008DF8C0
:1024E00002008DF805008DF8060001208DF8070028
:1024F00069460948FFF7D4F801210748FFF7CBF8F0
:1025000001210548FFF7C2F801210348FFF7B9F898
:102510001FBD000000080140003001401FB502A8A7
:10252000FEF7A4FD6846FFF7A1F802208DF80F0022
:1025300000208DF80C0008208DF80E00800202901B
:1025400004208DF80D0002A92648FEF7EDFD0220BB
:102550008DF80F0000208DF80C008DF80E004FF460
:102560008040029004208DF80D0002A91D48FEF75E
:10257000DBFD02208DF80F0000208DF80C000820F4
:102580008DF80E000003029004208DF80D0002A9C2
:102590001448FEF7C9FD00208DF8000001208DF8D9
:1025A000010000208DF804008DF8030002208DF852
:1025B000020000208DF805008DF8060001208DF83E
:1025C000070069460848FFF76BF801210648FFF746
:1025D00062F801210448FFF759F801210248FFF78A
:1025E00050F81FBD000C01400038004010B5FEF748
:1025F000FBF914201E49086001210420FDF7FEFFAD
:1026000000BF1C48FEF714F90128FAD1012100206F
:10261000FDF7F4FF00BF0120FEF70AF90128FAD107
:1026200023210020FEF756F901210220FDF7E6FFE5
:1026300000BF1920FEF7FCF80128FAD10020FDF7B1
:10264000ABFF0420FDF7BCFF0420FDF7AFFF012026
:10265000FDF7C0FF0220FEF7F9F900BFFEF714FAFC
:102660000228FBD10020FDF7B5FFFFF7ABF810BD46
:1026700000200240010024000EB501A8FEF7F6FC80
:102680001020019000208DF80A008DF80800042029
:102690008DF8090001208DF80B0001A92E48FEF7E6
:1026A00043FD2020019000208DF80A008DF80800DD
:1026B00004208DF8090001208DF80B0001A926489F
:1026C000FEF732FD01212548FEF782FD00224FF67C
:1026D000FF712348FFF720F900212148FFF729F96E
:1026E00000211F48FFF720F900211D48FFF7E6F9F8
:1026F00000211B48FFF7ECF900211948FFF7E3F927
:1027000000208DF8000001208DF8020000208DF8D7
:1027100001008DF80300002269461148FFF736F9E1
:1027200002208DF8000001208DF8020000208DF8B5
:1027300001008DF80300002269460948FFF726F9D9
:1027400000231A4601210648FFF7FDF8012104483D
:10275000FFF7F4F80EBD0000000C0140020408244D
:10276000000400401CB56846FEF780FC02208DF88E
:10277000070000208DF8040008208DF80600800175
:10278000009004208DF8050069462148FEF7CCFC36
:1027900002208DF8070000208DF804008DF8060057
:1027A0004FF48060009004208DF8050069461848B9
:1027B000FEF7BAFC00231A464FF4E1311548FFF743
:1027C000F7F901211348FFF76FFA01211148FFF7CC
:1027D00066FA00210F48FFF73CFA01210D48FFF788
:1027E0009DF900210B48FFF7B0F901210948FFF7D7
:1027F0009FF900210748FFF79BF901220649054888
:10280000FFF70CFA01210348FFF792F91CBD000005
:10281000000801400038014004000C001CB5684667
:10282000FEF724FC02208DF8070000208DF804003C
:1028300008208DF80600042000908DF805006946F8
:102840002248FEF771FC02208DF8070000208DF869
:1028500004008DF806000820009004208DF8050083
:1028600069461A48FEF760FC00231A464FF4E1312E
:102870001748FFF79DF901211548FFF715FA0121C7
:102880001348FFF70CFA00211148FFF7E2F9012184
:102890000F48FFF748F901210D48FFF73FF90021E4
:1028A0000B48FFF752F901210948FFF741F90021D0
:1028B0000748FFF73DF9012206490548FFF7AEF941
:1028C00001210348FFF734F91CBD00000008014056
:1028D0000044004004000C001CB56846FEF7C6FB2F
:1028E00002208DF8070000208DF8040008208DF8E4
:1028F0000600C001009004208DF8050069462348B9
:10290000FEF712FC02208DF8070000208DF804006D
:102910008DF806004FF40060009004208DF805004B
:1029200069461A48FEF700FC00231A464FF4E131CD
:102930001748FFF73DF901211548FFF7B5F90121C7
:102940001348FFF7ACF900211148FFF782F9012184
:102950000F48FFF7E8F801210D48FFF7DFF80021E5
:102960000B48FFF7F2F801210948FFF7E1F80021D1
:102970000748FFF7DDF8012206490548FFF74EF941
:1029800001210348FFF7D4F81CBD0000000C0140F2
:102990000048004004000C0010B50020FEF78CF841
:1029A0000520FEF779F810BD0000000000000000CF
:1029B00001020304060708090000000001020304E5
:1029C000000000000102030402040608020C0810C3
:1029D00000000000000000000102030406070809CF
:1029E000002A000800000020100000003C0400083D
:1029F000102A000810000020301400004C040008C9
:102A0000000000000000000000127A00000000003A
:04000005080001717D
:00000001FF
