:020000040800F2
:10000000680600200D020008CB030008BB030008AF
:10001000C7030008B30300087904000800000000CB
:10002000000000000000000000000000D3030008F2
:10003000B703000800000000CD03000825020008F7
:1000400027020008270200082702000827020008EC
:10005000270200082702000827020008B903000849
:1000600027020008270200082702000827020008CC
:1000700027020008270200082702000827020008BC
:1000800027020008270200082702000827020008AC
:10009000270200082702000827020008270200089C
:1000A000270200082702000827020008270200088C
:1000B000270200087104000827020008C103000895
:1000C000BF030008C5030008C3030008CF030008EE
:1000D000D1030008730400087504000877040008C1
:1000E000270200082702000827020008000000007D
:1000F0000000000000000000000000000000000000
:10010000000000002702000827020008000000008D
:10011000270200082702000800000000000000007D
:10012000270200082702000827020008270200080B
:1001300000000000000000000000000000000000BF
:10014000000000000000000000000000270200087E
:10015000000000000000000027020008270200083D
:10016000000000000000000000000000270200085E
:1001700000F002F800F03AF80AA090E8000C82447F
:100180008344AAF10107DA4501D100F02FF8AFF25C
:10019000090EBAE80F0013F0010F18BFFB1A43F065
:1001A000010318470C1E00002C1E0000103A24BF4B
:1001B00078C878C1FAD8520724BF30C830C144BFCC
:1001C00004680C607047000000230024002500260E
:1001D000103A28BF78C1FBD8520728BF30C148BFAA
:1001E0000B6070471FB51FBD10B510BD00F0A8F81B
:1001F0001146FFF7F7FF00F036FF00F0C6F803B432
:10020000FFF7F2FF03BC00F0CDF80000094880477B
:1002100009480047FEE7FEE7FEE7FEE7FEE7FEE7E8
:10022000FEE7FEE7FEE7FEE704480549054A064B00
:1002300070470000D5030008710100086800002025
:1002400068060020680200206802002053EA020CC1
:1002500000F069802DE9F04B4FF00006002B1FBF26
:10026000B3FA83F503FA05F424FA05F65E4012BFEB
:100270001643B2FA82F502FA05F4C5F120051EBF55
:1002800022FA05FC44EA0C04203556EA044C4FEAF5
:10029000144418BF641C4FF000084FF0000990424E
:1002A00071EB030C39D3002919BFB1FA81F701FAB8
:1002B00007F6B0FA80F700FA07F6C7F120071EBF6D
:1002C00020FA07FC46EA0C062037B6FBF4FCA7EB45
:1002D0000507103F07F01F0BCBF120060CFA0BFBB4
:1002E0002CFA06F644BFB3460026202FA4BF5E4674
:1002F0004FF0000B5BEA060C08BF4FF0010B19EB47
:100300000B09ABFB027C48EB0608C01B06FB02CCCA
:100310000BFB03CC71EB0C01C1E70B4602464146D7
:100320004846BDE8F08B13B54FF000004FF00001D8
:10033000AFF30080BDE81C407047704770477047BE
:10034000754600F02BF8AE4605006946534620F08E
:100350000700854618B020B5FFF766FFBDE82040CE
:100360004FF000064FF000074FF000084FF0000B71
:1003700021F00701AC46ACE8C009ACE8C009ACE824
:10038000C009ACE8C0098D46704710B50446AFF30C
:1003900000802046BDE81040FFF731BF004870479D
:1003A0000400002001491820ABBEFEE72600020031
:1003B000704700BFFEE77047704700BFFEE7704719
:1003C00070477047704700BFFEE77047704770473F
:1003D000704770472248C06920F0805000F180507B
:1003E0001F49C8611F48007840F004001D4950397A
:1003F00081F850001A48C06920F080501849C8613F
:100400000846006820F00100401C086000BF144846
:100410000068C0F340000028F9D01148406820F07F
:1004200003000F49486000BF0D484068C0F38100D9
:100430000028F9D10A4800680B49084008490860BB
:100440000020486041F61070C8624FF480100863C5
:100450004FF41F008860C80304490860704700001B
:100460000010024050700040FFFFF2FE08ED00E077
:10047000704770477047704700BFFEE703488068C9
:1004800020F00100401C01498860704700300240A4
:100490000149086170470000003002400349896843
:1004A00060F3C401014A91607047000000300240CF
:1004B00001494861704700000030024003498968E3
:1004C00060F34611014A916070470000003002401D
:1004D0000349896860F3C711014A916070470000C1
:1004E000003002400349496860F30711014A516036
:1004F00070470000001002400349496860F30A2178
:10050000014A5160704700000010024003494968E9
:1005100060F3CD21014A5160704700000010024095
:10052000012807D10749496D21F030013031054AD2
:10053000516505E00349496D21F03001014A5165DB
:100540007047000000100240052827D2DFE800F0C5
:10055000030A11181F00134A126861F30002114BBD
:100560001A601CE00F4A126861F310420D4B1A60CA
:1005700015E00C4A126861F318620A4B1A600EE02B
:10058000084A126A61F30002064B1A6207E0054A44
:10059000526A61F30002034B5A6200E000BF00BFE1
:1005A00070470000001002402DE9F04F85B004466E
:1005B0000025AA46AB460026A946002004900390D9
:1005C0000290019000F006FA0090009820B10128F6
:1005D00012D0022875D112E05648406DC0F3402079
:1005E00038B15448006BC0F3406010B152482060ED
:1005F00001E05248206067E05048206064E04D48C8
:100600004068C0F3004B4B48C06AC00F30BB49483C
:100610004068C0F3834547484068C0F3417ABAF167
:10062000000F01D10F2D04D14FEA0A10401C0544E0
:1006300000E0AD1CBBF1000F03D1414868432060CE
:100640003DE03C484068C0F3404018B13C48684336
:10065000206034E039486843206030E03548C06AA3
:10066000C0F3031003903348C06AC0F3082002901F
:100670003048C06A00F007000190BBF1000F02D1C2
:100680002F48049009E02B484068C0F3404010B167
:100690002B48049001E0294804900121019801FAB7
:1006A00000F0039900FB01FC02990498A0FB017083
:1006B0000146624600233846FFF7C8FD206003E08C
:1006C000FFE71E48206000BF00BF1A484068C0F323
:1006D00003161C4810F80690206820FA09F06060A4
:1006E00014484068C0F30226174810F80690606866
:1006F00020FA09F0E0600F484068C0F3C2261348B2
:1007000010F80690606820FA09F0A0600948406877
:10071000C0F3007607484068C0F3813040EA86069F
:100720000B4810F80690A068B0FBF9F0206105B006
:10073000BDE8F08F00100240006CDC0200127A006D
:1007400000093D00781F0008881F0008901F00085E
:10075000981F00080349096A60F3CF31014A11620A
:1007600070470000001002400349096A60F3092144
:10077000014A1162704700000010024010B50146A6
:100780000020094B03EB1142126801F01F04012302
:10079000A3401A4001F01F040123A3409A4200D055
:1007A00000E0012010BD0000001002400349096B69
:1007B00060F35961014A1163704700000010024064
:1007C00000B503460120FFF7F1FF0348406D63F3D6
:1007D00049200149486500BD0010024010B50129BB
:1007E0000DD10E4B03EB1042126800F01F040123E1
:1007F000A3401A43094C04EB10431A600CE0074B6A
:1008000003EB1042126800F01F040123A3409A4337
:10081000024C04EB10431A6010BD000000100240AF
:1008200030B502460020002372B9354C646824F4C8
:100830008034334D6C6033482C46246B24F00074B4
:1008400004F100742C6319E02D4C646824F48034A6
:1008500004F580342A4D6C60012A06D12A482C46C2
:10086000646824F400346C6008E02648244C646812
:1008700024F4003404F50034214D6C60234CA04274
:1008800004D9234CA04201D2002326E0214CA042EF
:1008900004D9214CA04201D201231EE01F4CA042EA
:1008A00004D91F4CA04201D2022316E01C4CA042E6
:1008B00004D91C4CA04201D203230EE01A4CA042E2
:1008C00004D91A4CA04201D2042306E0174CA042DE
:1008D00003D9174CA04200D20523094C646861F388
:1008E0009544074D6C600D09054C646865F35E74B2
:1008F000034D6C602C46E46A63F31A64EC6230BD0D
:100900000010024000093D0000127A0060823B00A6
:10091000404B4C0080584F00105E5F0094357700CC
:10092000101B7F0020BCBE00286BEE0030D73D01BD
:10093000D8E9DC011648006820F00100401C144989
:10094000086000BF12480068C0F340000028F9D0DA
:100950000F48406820F003000D49486000BF0C4874
:100960004068C0F381000028F9D1094800680949AE
:100970000840074908600020486041F61070C862CE
:100980004FF4801008634FF41F0088607047000028
:1009900000100240FFFFF2FE0D49496860F30101BB
:1009A0000B4A516000BF00BF00BF00BF00BF00BFC7
:1009B00000BF00BF00BF00BF00BF00BF00BF00BF3F
:1009C00000BF00BF00BF00BF00BF00BF70470000F6
:1009D0000010024002484068C0F3810070470000E8
:1009E000001002400649496860F39751044A51607B
:1009F00082080349496862F3DB61014A516070472C
:100A00000010024010B50446012C01D1FFF7D8FEBA
:100A10000348406D64F308200149486510BD00009B
:100A200000100240F8B507460C4615461E46002049
:100A30000090384600F08EF8009960F3174100915D
:100A4000204600F087F8009960F30C2100912846B9
:100A500000F080F8009960F305010091009866F3BA
:100A60004F30009000F020F900F04EF8012801D03E
:100A70000020F8BD00980849086000F063F80648B7
:100A8000001D0068C0F3401008B900F0F1F800F054
:100A900013F90120EDE700000428004010B50446DA
:100AA0000B4600F001F900F02FF8012801D00020DA
:100AB00010BD0848006864F31640064908600846FF
:100AC000006863F30E00086000F03CF800F0F4F8F2
:100AD0000120EDE71028004000B5034600F0E4F8DF
:100AE00000F012F8012801D0002000BD0548006880
:100AF00063F386100349086000F024F800F0DCF886
:100B00000120F2E70828004000B54FF4D8020C4855
:100B10000068C0F3801080B94FF0FF3008490860CA
:100B200005E01AB900F0C8F8002000BD521E0448C4
:100B30000068C0F380100028F3D00120F5E7000022
:100B40000C2800406FF080000149086070470000E9
:100B50000C28004010B50146002200230A2091FB1A
:100B6000F0F0C2B20A2091FBF0F400FB1410C3B203
:100B7000100743EA106010BD00B500F095F80020A2
:100B80001B490860FFF7C0FF012801D0002000BD0D
:100B9000002017490839086042F20110091D086059
:100BA0000020091D086013481149083108604FF6FC
:100BB000FF70091D08600020091D0860091D0860FC
:100BC000091D08600A492431086009493431086068
:100BD000091D0860091D0860091D08600449091DF8
:100BE000086000F045F800F067F80120CFE700004A
:100BF00008280040FF007F00F8B507460C46154660
:100C00001E46002000903846FFF7A4FF009960F3CD
:100C1000154100912046FFF79DFF009960F30E21DA
:100C200000912846FFF796FF009960F306010091B6
:100C3000009866F39650009000F036F8FFF764FFD6
:100C4000012801D00020F8BD009808490860FFF78E
:100C500079FF064808300068C0F3401008B900F07A
:100C600007F800F029F80120EDE700000028004017
:100C70004FF4D8010B480068C0F3C0106FF0A00219
:100C800042EAC010074A106003E009B9002070472B
:100C9000491E04480068C0F340100028F5D0012028
:100CA000F5E700000C280040CA20024908605320E4
:100CB0000860704724280040FF2001490860704701
:100CC000242800400021417241600121017201701D
:100CD00070470000014600204868234A126882439A
:100CE000214B1A601A1D126882431B1D1A604A7A32
:100CF0000AB30A782AB91A1F126802431B1F1A6026
:100D000006E0194A121D12680243174B1B1D1A6098
:100D1000154A083212688243134B08331A601A1DB1
:100D2000126882431B1D1A600A7A2AB91A1F1268B8
:100D300002431B1F1A6016E00A7A012A07D10A4AE9
:100D40000C3212680243084B0C331A600BE0064A5F
:100D5000083212680243044B08331A601A1D1268E5
:100D600002431B1D1A607047000401404161704737
:100D70004FF6FF7101600021817101710421417101
:100D80000121C1717047000010B500228B071C0FB4
:100D90000F2303FA04F28B1033B1012B13D0022B73
:100DA00020D0032B3CD12CE01F4B9B6893431E4C5F
:100DB000A36023469B688C07240F00FA04F42343A6
:100DC000194CA3602DE0184BDB689343164CE3608D
:100DD0002346DB688C07240F00FA04F42343124CEB
:100DE000E3601EE0104B1B6993430F4C23612346C5
:100DF0001B698C07240F00FA04F423430A4C236177
:100E00000FE0094B5B699343074C636123465B69C1
:100E10008C07240F00FA04F42343034C636100E0C1
:100E200000BF00BF10BD000000000140F0B50A4641
:100E30001588ABB29579032D01D100241AE095797C
:100E400065B9557905F00F045579182D01D1036165
:100E500010E05579282D0DD143610BE0957905F00F
:100E60000805167906F004063543D67906F0030620
:100E700045EA0604DDB2A5B1002110E001258D4050
:100E80001D405DB105688F000F26BE40B54305606B
:100E900005688E0004FA06F635430560491C0829EA
:100EA000ECD3FF2B15DD1B12002110E001258D4036
:100EB0001D405DB145688F000F26BE40B5434560BB
:100EC00045688E0004FA06F635434560491C08293A
:100ED000ECD3F0BDF0B50C46104F07EB1062C0F339
:100EE0000741C0F30725C6B2C5F12007A7EB010CE7
:100EF0004FF0FF3707FA0CF3C5F120077F1AFB40CC
:100F0000CB408B4017689F4317602CB106FA01FC59
:100F1000176847EA0C071760F0BD000000000140A9
:100F2000026861F38A220260704709B9012300E078
:100F30000023026863F3C71202607047026861F31E
:100F4000000202607047026861F386120260704717
:100F50002DE9F04385B00446894615460027B8467A
:100F60000026206820F0010020606846FFF71CFB87
:100F70003448844202D03448844200D1039F33482D
:100F8000B7FBF0F01FFA80F8606868F30700606054
:100F90002F4885421FD86800B7FBF0F086B2042EB8
:100FA00000DA0426E06966F30B00E061E06920F4F2
:100FB0000040E06108F101003F2805DD206A20F0D3
:100FC0003F003F30206239E008F10100216A60F300
:100FD0000501216232E0B9F1000F09D105EB4500AE
:100FE000B7FBF0F086B2E06920F48040E0610CE0ED
:100FF00005EBC50000EB0510B7FBF0F086B2E06929
:1010000020F4804000F58040E06106B90126E069E7
:1010100066F30B00E061E06920F4004000F5004059
:10102000E0614FF4967008FB00F04FF47A7190FB8A
:10103000F1F0401C216A60F30501216205B0BDE8B2
:10104000F0830000005400400058004040420F0070
:10105000A0860100836861F3CF338360836862F305
:1010600009038360704700F0EDFD00F0D7FC00F04D
:1010700083FB00F097FC00F0A1FE00F0E7FE00F01B
:101080002BFF00F021FD00F07DFD00F0F5FB00F0EE
:101090003BFC00F079FB00F099FB00F019FE00F03A
:1010A00063FF00F053FB00F0BBFB00BFFEE7000056
:1010B0002DE9F0470B4614464FF0000C00BF2C4AB8
:1010C0001268C2F302211D4626460A46C2F10709EC
:1010D000B9F1040F02D94FF0040901E0C2F1070988
:1010E000C84602F10409B9F1070F02D24FF0000916
:1010F00001E0A2F103094F464FF0010909FA08F98E
:10110000A9F1010909EA050909FA07F94FF0010AED
:101110000AFA07FAAAF1010A0AEA060A49EA0A09DA
:10112000CC4601466246002904DB15072E0E114D00
:101130006E5407E015072F0E0D4D0C3501F00F060C
:10114000361FAF5500BF014600290DDB00BF00BFB1
:1011500001F01F050122AA404D09AD0005F1E0256F
:10116000C5F8002100BF00BF00BFBDE8F087000048
:101170000CED00E000E400E000BF00F00702064BC9
:1011800019684FF6FF031940044B0B4343EA022151
:10119000014B196000BF70470CED00E00000FA053C
:1011A0000349096860F30821014A11607047000093
:1011B000007000400021017041708170C1700171A8
:1011C000417181710121C1717047026861F386121A
:1011D00002607047C26922F40062C2610A7862B993
:1011E000026822F400420260026822F48042026037
:1011F000026822F48062026036E00A78012A0ED189
:10120000026822F400420260026822F48042026016
:10121000026822F4806202F58062026024E00A78AB
:10122000022A0ED1026822F4004202F50042026056
:10123000026822F480420260026822F48062026046
:1012400012E00A78032A0FD1026822F4004202F564
:1012500000420260026822F4804202F5804202608D
:10126000026822F480620260CB79026863F349224B
:1012700002604A78012A09D1CA79012A06D1026896
:1012800022F4807202F58072026003E0026822F4A8
:10129000807202604B78026863F3820202608A788F
:1012A000072A0BDD426822F4807202F580724260E8
:1012B0008A78036862F3C503036008E0426822F499
:1012C000807242608B78026863F3C5020260CB785B
:1012D000026863F3C71202600B79026863F3CB22E2
:1012E00002604B79026863F3410202608B79026805
:1012F00063F30002026070472DE9FF5F00240025C0
:101300000026A146A246A346002003900290019029
:10131000FFF760FB0090009820B1012814D002284C
:1013200074D115E04348406DC0F3402040B14148BE
:10133000006BC0F3406018B13F484049086002E0CC
:101340003F483E49086065E03D483C49086061E02F
:1013500038484068C0F300463648C06AC00F20BB1A
:1013600034484068C0F3834432484068C0F3417554
:101370000DB90F2C03D12801401C044400E0A41C2B
:1013800026B9304860432D4908603DE0294840684F
:10139000C0F3404020B12B4860432849086033E047
:1013A00027486043254908602EE02248C06AC0F300
:1013B000031003901F48C06AC0F3082002901D4824
:1013C000C06A00F00700019016B9DFF878B009E0B4
:1013D00018484068C0F3404010B1DFF868B001E041
:1013E000DFF85CB00121019801FA00F0039900FBDD
:1013F00001FC0298ABFB00700146624600233846B0
:10140000FEF724FF0D49086004E0FFE70C480B4994
:10141000086000BF00BF07484068C0F303190A48CE
:1014200010F809A00548006820FA0AF0034908608E
:10143000BDE8FF9F00100240006CDC0200000020AD
:1014400000127A0000093D00A01F0008C1628262FC
:10145000436923F001035B1C43617047026861F339
:10146000092202607047026861F306120260704749
:10147000026861F300020260704730B5846861F36E
:1014800002048460046A62F3410404625510046A31
:1014900065F3C3040462846924F00304641C84615A
:1014A000046A63F3451404625D10046A65F3C714AB
:1014B0000462846924F4407404F58074846130BD4E
:1014C00030B500230B7833B1022B27D0042B48D042
:1014D000062B7DD169E0046A24F0010404624D7892
:1014E000046A65F3410404624C786508046A65F394
:1014F000C30404628D78846965F301048461CD7846
:10150000846965F307148461846962F383048461E8
:10151000046A24F00104641C046267E0046A24F095
:10152000100404624D78046A65F3451404624C7833
:101530006508046A65F3C71404628D78846965F3ED
:1015400009248461CD78846965F30F3484618469EA
:1015500062F38B248461046A24F010041034046262
:1015600044E0046A24F4807404624D78046A65F3EC
:10157000492404624C786508046A65F3CB2404624C
:101580008D78C46965F30104C461CD78C46965F3DD
:101590000714C461C46962F38304C461046A24F457
:1015A000807404F58074046220E0046A24F480549A
:1015B00004624D78046A65F34D3404628D78C46921
:1015C00065F30924C461CD78C46965F30F3400E084
:1015D0000BE0C461C46962F38B24C461046A24F41F
:1015E000805404F58054046200E000BF00BF30BDA9
:1015F000026861F3C71202607047426861F3061225
:1016000042607047826861F3C71282607047C268A7
:1016100061F34D32C260704741B9426922F4807271
:101620004261426922F40072426127E001290AD135
:10163000426922F4807202F580724261426922F4AA
:10164000007242611AE002290AD1426922F48072D2
:101650004261426922F4007202F5007242610DE0BB
:1016600003290BD1426922F4807202F58072426133
:10167000426922F4007202F5007242617047000074
:101680002DE9F04385B004460F46904699466846DA
:10169000FEF78AFF1448844201D1029E00E0039EB7
:1016A00006EB86004000B0FBF7F50A20B5FBF0F131
:1016B00000FB1150052803D20A20B5FBF0F503E02A
:1016C0000A20B5FBF0F0451CA06865F30F00A06090
:1016D000E06868F30C30E060206969F30D30206148
:1016E00005B0BDE8F08300000038014041B9C26890
:1016F00022F40072C260C26822F48062C2601AE002
:1017000001290AD1C26822F40072C260C26822F4C0
:10171000806202F58062C2600DE002290BD1C268CE
:1017200022F4007202F50072C260C26822F4806284
:1017300002F58062C2607047C26861F38202C260D3
:101740007047C26861F3C302C260704710B54FF0C2
:10175000FF30FEF79DFE0020FEF7A0FE0548FEF7D5
:10176000A7FE0020FEF7AAFE0020FEF7B1FEFEF75E
:1017700085FE10BDB71DC10410B501210148FFF75A
:10178000A9FB10BD0203103010B50120FFF708FDC2
:101790000220FEF7E9FF0120FEF7DCFFFFF7ECF97E
:1017A000FFF766FAFF217F20FFF778F90020FFF7A7
:1017B00093F900231A4619461846FFF71DFA01232C
:1017C0001A4619460020FFF72DF910BD00B585B067
:1017D00003A8FFF7CDFA00208DF812000220039035
:1017E00004208DF8110003A90C48FFF71FFB01210D
:1017F0000020FFF7C9FA6846FFF764FA01208DF868
:10180000090000208DF800000220019000208DF8D2
:1018100008006846FFF75EFA05B000BD0008014009
:101820001CB56846FFF7A4FA00208DF806001020CA
:10183000009004208DF8050069460D48FFF7F6FA80
:101840004FF400510B48FFF791FA02208DF8070082
:1018500000208DF8040010208DF806004002009052
:1018600004208DF8050069460248FFF7DFFA1CBD29
:1018700000080140001001401CB56846FFF778FAE7
:1018800004208DF804008DF8050008208DF806006E
:1018900002208DF807004020009069461748FFF7A6
:1018A000C5FA04208DF804008DF8050008208DF895
:1018B000060002208DF807008020009069460F483E
:1018C000FFF7B4FA0E4A00210E48FFF741FB002251
:1018D00011460C48FFF7BEFB01210A48FFF720FB29
:1018E00001210848FFF721FB00210648FFF72BFBE9
:1018F00001210448FFF722FB1CBD0000000C014041
:10190000A0860100005400401CB56846FFF730FA7D
:1019100004208DF804008DF8050008208DF80600DD
:1019200002208DF807004020009069461948FFF713
:101930007DFA04208DF804008DF8050008208DF84C
:10194000060002208DF807008020009069461148AB
:10195000FFF76CFA01211048FFF7BCFA0F4A00218B
:101960000F48FFF7F5FA002211460D48FFF772FB0A
:1019700001210B48FFF7D4FA01210948FFF7D5FAF6
:1019800000210748FFF7DFFA01210548FFF7D6FAE3
:101990001CBD0000001C014003040828A0860100B3
:1019A0000058004010B50320FFF7E6FB0022114667
:1019B0000720FFF77DFB002211461D20FFF778FB73
:1019C000002211461F20FFF773FB00221146202042
:1019D000FFF76EFB002211462120FFF769FB002272
:1019E00011462220FFF764FB002211462320FFF757
:1019F0005FFB002211462420FFF75AFB002211460C
:101A00002520FFF755FB002211462620FFF750FB4B
:101A1000002211462720FFF74BFB10BD10B5012116
:101A20002648FEF7DBFE01212448801DFEF7D6FE86
:101A300001214FF4C010FEF7D1FE01212048FEF72E
:101A4000CDFE01211E48401CFEF7C8FE01211C48A6
:101A5000801CFEF7C3FE01211948401DFEF7BEFEA3
:101A6000012117480A30FEF7B9FE012114480C3055
:101A7000FEF7B4FE01211348FEF7B0FE0121114824
:101A80000D30FEF7ABFE01210E481030FEF7A6FE2A
:101A900001210C481130FEF7A1FE01210948143044
:101AA000FEF79CFE012107481530FEF797FE012145
:101AB0004FF01C10FEF792FE10BD0000060014004F
:101AC0000200180001001C001FB502A8FFF750F922
:101AD0006846FFF76FFB02208DF80F0000208DF89D
:101AE0000C0008208DF80E002020029004208DF8B4
:101AF0000D0002A92148FFF799F902208DF80F0087
:101B000000208DF80C008DF80E004020029004207B
:101B10008DF80D0002A91948FFF788F902208DF809
:101B20000F0000208DF80C0008208DF80E0080209A
:101B3000029004208DF80D0002A91048FFF776F9F5
:101B400000208DF8000001208DF8010000208DF8A4
:101B500004008DF803008DF802008DF805008DF863
:101B6000060001208DF8070069460548FFF732FBA3
:101B700001210348FFF729FB1FBD000000080140B9
:101B8000003001401FB502A8FFF7F2F86846FFF7E2
:101B900011FB02208DF80F0000208DF80C000820AA
:101BA0008DF80E008002029004208DF80D0002A92D
:101BB0002248FFF73BF902208DF80F0000208DF836
:101BC0000C008DF80E004FF48040029004208DF838
:101BD0000D0002A91948FFF729F902208DF80F001E
:101BE00000208DF80C0008208DF80E0000030290F4
:101BF00004208DF80D0002A91048FFF717F9002006
:101C00008DF8000001208DF8010000208DF80400FF
:101C10008DF8030002208DF8020000208DF80500E9
:101C20008DF8060001208DF8070069460448FFF78B
:101C3000D1FA01210248FFF7C8FA1FBD000C01408C
:101C40000038004010B5FEF775FE14201E490860EC
:101C500001210420FEF778FC00BF1C48FEF78EFD32
:101C60000128FAD101210020FEF76EFC00BF0120FF
:101C7000FEF784FD0128FAD123210020FEF7D0FDD4
:101C800001210220FEF760FC00BF1920FEF776FD5F
:101C90000128FAD10020FEF725FC0420FEF736FCCF
:101CA0000420FEF729FC0120FEF73AFC0220FEF793
:101CB00073FE00BFFEF78EFE0228FBD10020FEF768
:101CC0002FFCFFF719FB10BD00200240010024008B
:101CD0000EB501A8FFF74CF81020019000208DF8F8
:101CE0000A008DF8080004208DF8090001208DF805
:101CF0000B0001A92E48FFF799F820200190002041
:101D00008DF80A008DF8080004208DF809000120E4
:101D10008DF80B0001A92648FFF788F80121254816
:101D2000FFF7D8F800224FF6FF712348FFF78EFB2C
:101D300000212148FFF797FB00211F48FFF78EFB8A
:101D400000211D48FFF754FC00211B48FFF75AFCF7
:101D500000211948FFF751FC00208DF800000120F8
:101D60008DF8020000208DF801008DF8030000229C
:101D700069461148FFF7A4FB02208DF800000120FE
:101D80008DF8020000208DF801008DF8030000227C
:101D900069460948FFF794FB00231A4601210648CB
:101DA000FFF76BFB01210448FFF762FB0EBD00004B
:101DB000000C014002040824000400401CB56846E1
:101DC000FEF7D6FF02208DF8070000208DF80400F2
:101DD00008208DF806008001009004208DF8050091
:101DE00069461848FFF722F802208DF80700002006
:101DF0008DF804008DF806004FF4806000900420F8
:101E00008DF8050069460F48FFF710F800231A46C1
:101E10004FF4E1310C48FFF733FC01210A48FFF78A
:101E200090FC01210848FFF787FC00210648FFF7D6
:101E30005DFC00210448FFF7EFFB01210248FFF79A
:101E4000E6FB1CBD00080140003801401CB5684697
:101E5000FEF78EFF02208DF8070000208DF80400A9
:101E600008208DF80600042000908DF805006946D2
:101E70001748FEF7DBFF02208DF8070000208DF8E1
:101E800004008DF806000820009004208DF805005D
:101E900069460F48FEF7CAFF00231A464FF4E131A6
:101EA0000C48FFF7EDFB01210A48FFF74AFC01212E
:101EB0000848FFF741FC00210648FFF717FC002106
:101EC0000448FFF7A9FB01210248FFF7A0FB1CBD56
:101ED00000080140004400401CB56846FEF748FF7A
:101EE00002208DF8070000208DF8040008208DF8EE
:101EF0000600C001009004208DF8050069461848CE
:101F0000FEF794FF02208DF8070000208DF80400F2
:101F10008DF806004FF40060009004208DF8050055
:101F200069460F48FEF782FF00231A464FF4E1315D
:101F30000C48FFF7A5FB01210A48FFF702FC01212D
:101F40000848FFF7F9FB00210648FFF7CFFB002107
:101F50000448FFF761FB01210248FFF758FB1CBD55
:101F6000000C01400048004010B50020FEF74AFD7B
:101F70000520FEF737FD10BD000000000000000046
:101F8000010203040607080900000000010203041F
:101F9000000000000102030402040608020C0810FD
:101FA0000000000000000000010203040607080909
:101FB000D01F00080000002004000000AC01000851
:101FC000D41F00080400002064060000C8010008B7
:041FD00000127A0081
:04000005080001717D
:00000001FF
